{
  "_format": "hh-sol-artifact-1",
  "contractName": "Voting",
  "sourceName": "contracts/Voting.sol",
  "abi": [
    {
      "anonymous": false,
      "inputs": [
        {
          "indexed": true,
          "internalType": "uint256",
          "name": "pollId",
          "type": "uint256"
        },
        {
          "indexed": true,
          "internalType": "address",
          "name": "voter",
          "type": "address"
        },
        {
          "indexed": false,
          "internalType": "uint256",
          "name": "option",
          "type": "uint256"
        }
      ],
      "name": "Voted",
      "type": "event"
    },
    {
      "inputs": [
        {
          "internalType": "string",
          "name": "_name",
          "type": "string"
        },
        {
          "internalType": "uint256",
          "name": "_deadline",
          "type": "uint256"
        }
      ],
      "name": "createPoll",
      "outputs": [],
      "stateMutability": "nonpayable",
      "type": "function"
    },
    {
      "inputs": [
        {
          "internalType": "address",
          "name": "",
          "type": "address"
        },
        {
          "internalType": "uint256",
          "name": "",
          "type": "uint256"
        }
      ],
      "name": "hasVoted",
      "outputs": [
        {
          "internalType": "bool",
          "name": "",
          "type": "bool"
        }
      ],
      "stateMutability": "view",
      "type": "function"
    },
    {
      "inputs": [],
      "name": "pollCount",
      "outputs": [
        {
          "internalType": "uint256",
          "name": "",
          "type": "uint256"
        }
      ],
      "stateMutability": "view",
      "type": "function"
    },
    {
      "inputs": [
        {
          "internalType": "uint256",
          "name": "",
          "type": "uint256"
        }
      ],
      "name": "polls",
      "outputs": [
        {
          "internalType": "string",
          "name": "name",
          "type": "string"
        },
        {
          "internalType": "uint256",
          "name": "deadline",
          "type": "uint256"
        },
        {
          "internalType": "uint256",
          "name": "votesA",
          "type": "uint256"
        },
        {
          "internalType": "uint256",
          "name": "votesB",
          "type": "uint256"
        },
        {
          "internalType": "address",
          "name": "creator",
          "type": "address"
        }
      ],
      "stateMutability": "view",
      "type": "function"
    },
    {
      "inputs": [
        {
          "internalType": "uint256",
          "name": "_pollId",
          "type": "uint256"
        },
        {
          "internalType": "uint256",
          "name": "_option",
          "type": "uint256"
        }
      ],
      "name": "vote",
      "outputs": [],
      "stateMutability": "nonpayable",
      "type": "function"
    }
  ],
  "bytecode": "0x608060405234801561001057600080fd5b50610ce7806100206000396000f3fe608060405234801561001057600080fd5b50600436106100575760003560e01c8063425458251461005c5780639207891d1461008c578063ac2f0074146100aa578063b384abef146100de578063c7449cb7146100fa575b600080fd5b610076600480360381019061007191906106f8565b610116565b6040516100839190610953565b60405180910390f35b610094610145565b6040516100a19190610a48565b60405180910390f35b6100c460048036038101906100bf9190610788565b61014b565b6040516100d595949392919061096e565b60405180910390f35b6100f860048036038101906100f391906107b1565b610229565b005b610114600480360381019061010f9190610734565b61048d565b005b60026020528160005260406000206020528060005260406000206000915091509054906101000a900460ff1681565b60015481565b600060205280600052604060002060009150905080600001805461016e90610b6a565b80601f016020809104026020016040519081016040528092919081815260200182805461019a90610b6a565b80156101e75780601f106101bc576101008083540402835291602001916101e7565b820191906000526020600020905b8154815290600101906020018083116101ca57829003601f168201915b5050505050908060010154908060020154908060030154908060040160009054906101000a900473ffffffffffffffffffffffffffffffffffffffff16905085565b426000808481526020019081526020016000206001015411610280576040517f08c379a0000000000000000000000000000000000000000000000000000000008152600401610277906109e8565b60405180910390fd5b600260003373ffffffffffffffffffffffffffffffffffffffff1673ffffffffffffffffffffffffffffffffffffffff168152602001908152602001600020600083815260200190815260200160002060009054906101000a900460ff161561031e576040517f08c379a000000000000000000000000000000000000000000000000000000000815260040161031590610a28565b60405180910390fd5b600081148061032d5750600181145b61036c576040517f08c379a0000000000000000000000000000000000000000000000000000000008152600401610363906109c8565b60405180910390fd5b60008114156103a557600080838152602001908152602001600020600201600081548092919061039b90610b9c565b91905055506103d1565b60008083815260200190815260200160002060030160008154809291906103cb90610b9c565b91905055505b6001600260003373ffffffffffffffffffffffffffffffffffffffff1673ffffffffffffffffffffffffffffffffffffffff168152602001908152602001600020600084815260200190815260200160002060006101000a81548160ff0219169083151502179055503373ffffffffffffffffffffffffffffffffffffffff16827f1abe610cf2bf87e57dcc1181fcf5ac0934e843d8344ab9eed6e86c799f62585e836040516104819190610a48565b60405180910390a35050565b4281116104cf576040517f08c379a00000000000000000000000000000000000000000000000000000000081526004016104c690610a08565b60405180910390fd5b600160008154809291906104e290610b9c565b91905055506040518060a0016040528083815260200182815260200160008152602001600081526020013373ffffffffffffffffffffffffffffffffffffffff16815250600080600154815260200190815260200160002060008201518160000190805190602001906105569291906105c3565b5060208201518160010155604082015181600201556060820151816003015560808201518160040160006101000a81548173ffffffffffffffffffffffffffffffffffffffff021916908373ffffffffffffffffffffffffffffffffffffffff1602179055509050505050565b8280546105cf90610b6a565b90600052602060002090601f0160209004810192826105f15760008555610638565b82601f1061060a57805160ff1916838001178555610638565b82800160010185558215610638579182015b8281111561063757825182559160200191906001019061061c565b5b5090506106459190610649565b5090565b5b8082111561066257600081600090555060010161064a565b5090565b600061067961067484610a94565b610a63565b90508281526020810184848401111561069157600080fd5b61069c848285610b28565b509392505050565b6000813590506106b381610c83565b92915050565b600082601f8301126106ca57600080fd5b81356106da848260208601610666565b91505092915050565b6000813590506106f281610c9a565b92915050565b6000806040838503121561070b57600080fd5b6000610719858286016106a4565b925050602061072a858286016106e3565b9150509250929050565b6000806040838503121561074757600080fd5b600083013567ffffffffffffffff81111561076157600080fd5b61076d858286016106b9565b925050602061077e858286016106e3565b9150509250929050565b60006020828403121561079a57600080fd5b60006107a8848285016106e3565b91505092915050565b600080604083850312156107c457600080fd5b60006107d2858286016106e3565b92505060206107e3858286016106e3565b9150509250929050565b6107f681610ae0565b82525050565b61080581610af2565b82525050565b600061081682610ac4565b6108208185610acf565b9350610830818560208601610b37565b61083981610c72565b840191505092915050565b6000610851600e83610acf565b91507f496e76616c6964206f7074696f6e0000000000000000000000000000000000006000830152602082019050919050565b6000610891600e83610acf565b91507f506f6c6c2068617320656e6465640000000000000000000000000000000000006000830152602082019050919050565b60006108d1601e83610acf565b91507f446561646c696e65206d75737420626520696e207468652066757475726500006000830152602082019050919050565b6000610911601683610acf565b91507f596f75206861766520616c726561647920766f746564000000000000000000006000830152602082019050919050565b61094d81610b1e565b82525050565b600060208201905061096860008301846107fc565b92915050565b600060a0820190508181036000830152610988818861080b565b90506109976020830187610944565b6109a46040830186610944565b6109b16060830185610944565b6109be60808301846107ed565b9695505050505050565b600060208201905081810360008301526109e181610844565b9050919050565b60006020820190508181036000830152610a0181610884565b9050919050565b60006020820190508181036000830152610a21816108c4565b9050919050565b60006020820190508181036000830152610a4181610904565b9050919050565b6000602082019050610a5d6000830184610944565b92915050565b6000604051905081810181811067ffffffffffffffff82111715610a8a57610a89610c43565b5b8060405250919050565b600067ffffffffffffffff821115610aaf57610aae610c43565b5b601f19601f8301169050602081019050919050565b600081519050919050565b600082825260208201905092915050565b6000610aeb82610afe565b9050919050565b60008115159050919050565b600073ffffffffffffffffffffffffffffffffffffffff82169050919050565b6000819050919050565b82818337600083830152505050565b60005b83811015610b55578082015181840152602081019050610b3a565b83811115610b64576000848401525b50505050565b60006002820490506001821680610b8257607f821691505b60208210811415610b9657610b95610c14565b5b50919050565b6000610ba782610b1e565b91507fffffffffffffffffffffffffffffffffffffffffffffffffffffffffffffffff821415610bda57610bd9610be5565b5b600182019050919050565b7f4e487b7100000000000000000000000000000000000000000000000000000000600052601160045260246000fd5b7f4e487b7100000000000000000000000000000000000000000000000000000000600052602260045260246000fd5b7f4e487b7100000000000000000000000000000000000000000000000000000000600052604160045260246000fd5b6000601f19601f8301169050919050565b610c8c81610ae0565b8114610c9757600080fd5b50565b610ca381610b1e565b8114610cae57600080fd5b5056fea2646970667358221220e9d0853ff7fd428baae27cabb279243adb8454577b309b015f91d882d5b9185264736f6c63430008000033",
  "linkReferences": {},
  "deployedLinkReferences": {}
}